:100000000C9446000C9465000C9465000C946500FB
:100010000C9465000C9465000C9465000C946500CC
:100020000C9465000C9465000C9465000C946500BC
:100030000C9465000C94B5000C9465000C9465005C
:100040000C9465000C9465000C9465000C9465009C
:100050000C9465000C9465000C9465000C9465008C
:100060000C9465000C9465000C9465000C9465007C
:100070000C9465000C9465000C9465000C9465006C
:100080000C9465000C9465000C94650011241FBE4F
:10009000CFEFD0E4DEBFCDBF11E0A0E0B1E0E6E2FB
:1000A000F7E000E00BBF02C007900D92A231B1074C
:1000B000D9F721E0A2E1B1E001C01D92A432B2075C
:1000C000E1F70E94EC020C9491030C940000CF9392
:1000D000DF93CDB7DEB781E890E02BE0FC01208311
:1000E00088E890E02DE730E0FC01318320838FE643
:1000F00090E022E0FC01208384E890E0FC01118282
:1001000010828091000190910101A0910201B091B3
:1001100003018093130190931401A0931501B093F0
:1001200016018FE590E02FE530E0F901208120688D
:10013000FC0120830000DF91CF910895CF93DF93DE
:10014000CDB7DEB781E890E0FC0110820000DF91BE
:10015000CF910895CF93DF93CDB7DEB781E0809341
:1001600012010000DF91CF9108951F920F9200902D
:100170005F000F92112400905B000F922F933F932A
:100180004F935F936F937F938F939F93AF93BF939F
:10019000EF93FF93CF93DF93CDB7DEB78091130139
:1001A00090911401A0911501B09116010197A10938
:1001B000B1098093130190931401A0931501B0939A
:1001C00016018091130190911401A0911501B09135
:1001D0001601892B8A2B8B2B91F40E94AA00809107
:1001E000000190910101A0910201B091030180935F
:1001F000130190931401A0931501B0931601000010
:10020000DF91CF91FF91EF91BF91AF919F918F912E
:100210007F916F915F914F913F912F910F9000923D
:100220005B000F9000925F000F901F901895CF9386
:10023000DF9300D000D0CDB7DEB769837A838B839C
:100240009C8389819A81AB81BC81809300019093CA
:100250000101A0930201B0930301809100019091EC
:100260000101A0910201B0910301809313019093C9
:100270001401A0931501B093160100000F900F9088
:100280000F900F90DF91CF910895CF93DF9300D01F
:100290001F92CDB7DEB789837B836A8389818A30D9
:1002A00031F48A819B81BC018DE00E94450180EC84
:1002B00090E0FC018081882F90E080729927892B43
:1002C000B1F386EC90E02981FC01208380E090E08E
:1002D0000F900F900F90DF91CF910895CF93DF9300
:1002E000CDB7DEB780911E0190911F01813091053D
:1002F00081F08130910530F08230910589F00397CB
:10030000B1F01CC081E090E090931F0180931E012A
:1003100015C082E090E090931F0180931E010EC0F3
:1003200083E090E090931F0180931E0107C081E05D
:1003300090E090931F0180931E01000080911E01A8
:1003400090911F018130910549F08130910590F025
:100350008230910539F0039749F00DC081E0809318
:100360001C0109C082E080931C0105C084E08093D9
:100370001C0101C000000000DF91CF910895CF93D0
:10038000DF93CDB7DEB780912201909123018130B8
:10039000910569F08130910518F0029779F015C048
:1003A00081E090E090932301809322010EC082E0CF
:1003B00090E0909323018093220107C081E090E0B8
:1003C000909323018093220100008091220190915B
:1003D00023018130910531F08130910550F0029771
:1003E00029F008C088E08093180104C01092180119
:1003F00001C000000000DF91CF910895CF93DF93FB
:100400001F92CDB7DEB780E290E0FC01808180953D
:100410008370898380912001909121018130910521
:1004200049F18130910520F0029709F43DC057C091
:100430008981823059F481E090E09093210180938A
:10044000200180911D018F5F80931D018981813082
:1004500009F040C080911D018130E1F182E090E01F
:10046000909321018093200180911D018150809300
:100470001D0130C08981813079F480911D01813066
:1004800059F082E090E090932101809320018091C7
:100490001D01815080931D0189818823E9F4109208
:1004A00021011092200118C08981823059F481E025
:1004B00090E0909321018093200180911D018F5F36
:1004C00080931D018981882349F4109221011092A3
:1004D000200104C0000003C0000001C000000000B3
:1004E0000F90DF91CF910895CF93DF931F92CDB7F7
:1004F000DEB780E290E0FC01808180958470898382
:100500008091190190911A018130910569F0813033
:10051000910518F0029791F01EC081E090E0909351
:100520001A018093190117C08981882389F082E01C
:1005300090E090931A01809319010AC08981882361
:1005400049F481E090E090931A018093190102C070
:10055000000001C000008091190190911A018130C2
:10056000910531F081309105E8F0029731F01BC020
:1005700010921B011092170116C0809117019091E3
:100580001D01692F0E9485038170882311F080E18D
:1005900001C080E080931B01809117018F5F8093E1
:1005A000170101C0000000000F90DF91CF91089566
:1005B000CF93DF93CDB7DEB785E290E030911C0199
:1005C00020911801322B20911B01232BFC01208349
:1005D0000000DF91CF910895CF93DF93CDB7DEB7C1
:1005E0002C970FB6F894DEBF0FBECDBF81E290E02E
:1005F000FC01108282E290E02FEFFC01208384E274
:1006000090E02FEFFC01208385E290E0FC01108256
:100610008CE291E0A0E0B0E089839A83AB83BC8355
:1006200088EE93E0A0E0B0E08D839E83AF83B8872F
:1006300081E090E0A0E0B0E089879A87AB87BC8733
:1006400089859A85AB85BC85BC01CD010E941701C7
:100650000E94670010921F0110921E011092230148
:100660001092220110921A011092190182E08093D7
:100670001D0189819A81AB81BC818C329140A10599
:10068000B10530F00E946E0119821A821B821C8211
:100690008D819E81AF81B885883E9340A105B105CB
:1006A00030F00E94BF011D821E821F8218860E94A8
:1006B000FE010E9474020E94D80200008091120183
:1006C0008823E1F31092120129813A814B815C81E8
:1006D00089859A85AB85BC85820F931FA41FB51FA2
:1006E00089839A83AB83BC832D813E814F8158855A
:1006F00089859A85AB85BC85820F931FA41FB51F82
:100700008D839E83AF83B887B4CF991B79E004C0F3
:10071000991F961708F0961B881F7A95C9F7809540
:060720000895F894FFCFDC
:10072600010000000000000200000000450100007A
:020736000000C1
:00000001FF
